S01C000043616665547261696E41746D6E656761323536302E7372656311
S113000071C000008EC000008CC000008AC00000D7
S113001088C0000086C0000084C0000082C00000C8
S113002080C000007EC000007CC000007AC00000D8
S113003078C0000076C0000074C0000072C00000E8
S113004070C000006EC000006CC000006AC00000F8
S113005068C0000066C0000064C0000062C0000008
S113006060C000005EC000005CC000005AC0000018
S113007058C0000056C0000054C0000052C0000028
S113008050C000004EC000004CC000004AC0000038
S113009048C0000046C0000044C0000042C0000048
S11300A040C000003EC000003CC000003AC0000058
S11300B038C0000036C0000034C0000032C0000068
S11300C030C000002EC000002CC000002AC0000078
S11300D028C0000026C0000024C0000022C0000088
S11300E020C0000011241FBECFEFD1E2DEBFCDBF80
S11300F000E00CBF12E0A0E0B2E0E6EBF6E000E0C6
S11301000BBF02C007900D92A430B107D9F722E0CB
S1130110A4E0B2E001C01D92A331B207E1F7F9D126
S1130120C8C26ECF84B3897F84BB8BB18F778BB900
S113013088B18C7F88B90895CF93DF93EC01F2DF07
S113014081E080931102C330D10509F444C034F432
S1130150C130D10559F02297E1F0EDC0C430D1058A
S113016009F46AC0259709F4A7C0E5C082B1846088
S113017082B92FE38DE093E0215080409040E1F775
S113018000C0000082B18B7F82B984B3826084BBDB
S1130190D2C082B1886082B92FE38DE093E0215010
S11301A080409040E1F700C0000082B1877F82B9AF
S11301B082B1806182B92FE38DE093E021508040C9
S11301C09040E1F700C0000082B18F7E82B984B311
S11301D0846084BBB0C082B1886082B92FE38DE0B3
S11301E093E0215080409040E1F700C0000082B1CC
S11301F0877F82B982B1806282B92FE38DE093E078
S1130200215080409040E1F700C0000082B18F7D12
S113021082B982B1806482B92FE38DE093E02150EA
S113022080409040E1F700C0000082B18F7B82B92A
S11302308BB180688BB97FC082B1886082B92FE3AB
S11302408DE093E0215080409040E1F700C0000031
S113025082B1877F82B982B1806282B92FE38DE057
S113026093E0215080409040E1F700C0000082B14B
S11302708F7D82B982B1806882B92FE38DE093E0EB
S1130280215080409040E1F700C0000082B18F7798
S113029082B988B1806288B92FE38DE093E0215060
S11302A080409040E1F700C0000088B18F7D88B99C
S11302B088B1816088B93FC082B1886082B92FE378
S11302C08DE093E0215080409040E1F700C00000B1
S11302D082B1877F82B982B1806282B92FE38DE0D7
S11302E093E0215080409040E1F700C0000082B1CB
S11302F08F7D82B982B1806882B92FE38DE093E06B
S1130300215080409040E1F700C0000082B18F7717
S113031082B988B1806488B92FE38DE093E02150DD
S113032080409040E1F700C0000088B18F7B88B91D
S113033088B1826088B9DF91CF9108959C01E8E08B
S1130340F1E09081907E90832115310561F0408128
S11303502150310981E090E002C0880F991F2A954D
S1130360E2F7842B80830895E8E0F1E090819F73A5
S11303709083882319F0808180648083662329F028
S1130380E8E0F1E080818068808310928900109217
S1130390880008958091880090918900109212023B
S11303A08BB1807F8BB982B18D7F82B960E080E0B0
S11303B0DBDF1092040210920502109206021092E2
S11303C007020895909389008093880008950F93FD
S11303D01F93CF93DF93EC018B01C017D10754F027
S11303E0CE01F0DF83EC99E00197F1F700C0000043
S11303F02197F3CFDF91CF911F910F9108958BB186
S113040088608BB98BB184608BB90895CF93DF93E7
S1130410EC01F5DFC130D10549F46091020270911D
S113042003028091000290910102D1DF229741F4EE
S113043060E070E08091020290910302C8DFAADFBD
S1130440DF91CF9108958091120281111AC0D7DFF4
S113045080E0282F30E03093890020938800E3EC7B
S1130460F9E03197F1F700C000008A3F40F08BB10A
S11304708B7F8BB9109289001092880008958F5F4A
S1130480E8CF0895CF93DF93D0911202D11121C008
S1130490882321F0019904C09D2F03C09D2F01C022
S11304A091E0C82F992321F075DF82B18D7F82B945
S11304B0C11102C0019BD1E0DD2339F06BDF61E0A3
S11304C080E052DF82B1826082B9BDDF81E0809337
S11304D01202DF91CF9108952FB130E002C035951B
S11304E027958A95E2F720FD0EC0FB0180818111DA
S11304F00EC081E0808383ED90E30197F1F700C0A3
S1130500000081E00895FB01108280E0089580E0FE
S1130510089510BA84B18F7D84B98FEF8093070159
S11305201092080181B18E6F81B987B1836687B952
S11305308AB18F688AB983B3866083BB87B18B7FA6
S113054087B9EAE0F1E080818E73808384B18062B0
S113055084B981E88093800089E080938100809150
S1130560120281113BC068E072E0B6DF882331F0EB
S113057081E090E0E3DE81E090E0DEDD69E072E0BE
S113058081E0AADF882331F082E090E0D7DE82E0C8
S113059090E0D2DD6AE072E082E09EDF882331F0F1
S11305A083E090E0CBDE83E090E0C6DD6BE072E0B8
S11305B083E092DF882331F084E090E0BFDE84E0C2
S11305C090E0BADD6CE072E084E086DF882331F0ED
S11305D085E090E0B3DE85E090E0AEDD7E990AC070
S11305E080911102882341F090911002992329F0FF
S11305F080E003C080E001C080E0882329F060E04F
S113060081E0B2DE81E03EDF7F9903C08091110278
S113061001C080E0882321F080E034DF10921002D2
S11306207D9BB8DE329904C0019B04C080E003C006
S113063080E001C081E0882319F082E090E0E6DEEA
S11306408091090180FD04C0019B04C080E003C0C7
S113065080E001C081E0882319F081E090E0D6DEDB
S113066080910901882324F0019904C080E003C02B
S113067080E001C081E0882341F082E090E0C6DEA2
S113068080E090E05BDE109211028091090181FD0F
S113069004C0019904C080E003C080E001C081E08F
S11306A0811178DE83ED90E30197F1F700C000003B
S10906B056CFF894FFCFC1
S10706B6FF005A00E3
S9030000FC
